:100000000C9434000C943E000C943E000C943E0082
:100010000C943E000C943E000C943E000C943E0068
:100020000C943E000C943E000C943E000C943E0058
:100030000C943E000C943E000C943E000C943E0048
:100040000C943E000C943E000C943E000C943E0038
:100050000C943E000C943E000C943E000C943E0028
:100060000C943E000C943E0011241FBECFEFD8E04C
:10007000DEBFCDBF0E947D000C94B5000C94000043
:1000800084B1826084B984B1846084B984B18860A9
:1000900084B984B18F7B84B908958AB186608AB9A6
:1000A00008958BB182608BB98BB18B7F8BB908952A
:1000B0008BB18D7F8BB98BB18B7F8BB9089585B157
:1000C000826085B985B18B7F85B985B1877F85B918
:1000D000089585B18D7F85B985B1846085B985B175
:1000E000877F85B9089585B18D7F85B985B18B7F6F
:1000F00085B985B1886085B908950E9440000E9445
:100100004D000E9473002FEF83ED90E3215080405B
:100110009040E1F700C000000E9469002FEF83EDDE
:1001200090E3215080409040E1F700C000000E9421
:100130005F002FEF83ED90E3215080409040E1F786
:1001400000C000001E9B0EC00E945F000E94510074
:100150002FEF83ED90E3215080409040E1F700C005
:0E0160000000CFCF0E945800CCCFF894FFCF04
:00000001FF
