:100000000C9434000C943E000C943E000C943E0082
:100010000C943E000C943E000C943E000C943E0068
:100020000C943E000C943E000C943E000C943E0058
:100030000C943E000C943E000C943E000C943E0048
:100040000C943E000C943E000C943E000C943E0038
:100050000C943E000C943E000C943E000C943E0028
:100060000C943E000C943E0011241FBECFEFD8E04C
:10007000DEBFCDBF0E9466000C946B000C940000A4
:1000800084B1826084B984B1846084B9089585B1F3
:10009000826085B985B18B7F85B92FEF83ED90E3C1
:1000A000215080409040E1F700C0000085B18D7F75
:1000B00085B985B1846085B92FEF83ED90E3215038
:1000C00080409040E1F700C0000008950E94400089
:0A00D0000E944700FDCFF894FFCF17
:00000001FF
