S01B0000426C696E6B5F5472616666696353797374656D2E7372656376
S11300000C9434000C943E000C943E000C943E007E
S11300100C943E000C943E000C943E000C943E0064
S11300200C943E000C943E000C943E000C943E0054
S11300300C943E000C943E000C943E000C943E0044
S11300400C943E000C943E000C943E000C943E0034
S11300500C943E000C943E000C943E000C943E0024
S11300600C943E000C943E0011241FBECFEFD8E048
S1130070DEBFCDBF0E9468000C948C000C9400007D
S113008084B1826084B984B1846084B984B18860A5
S113009084B9089585B1826085B985B18B7F85B9AE
S11300A085B1877F85B9089585B18D7F85B985B17F
S11300B0846085B985B1877F85B9089585B18D7FC1
S11300C085B985B18B7F85B985B1886085B9089577
S11300D00E9440000E945E002FEF83ED90E32150C8
S11300E080409040E1F700C000000E9454002FEFD0
S11300F083ED90E3215080409040E1F700C0000080
S11301000E944A002FEF83ED90E3215080409040FD
S10F0110E1F700C00000DECFF894FFCF40
S9030000FC
