S00D0000426C696E6B2E7372656327
S11300000C9434000C943E000C943E000C943E007E
S11300100C943E000C943E000C943E000C943E0064
S11300200C943E000C943E000C943E000C943E0054
S11300300C943E000C943E000C943E000C943E0044
S11300400C943E000C943E000C943E000C943E0034
S11300500C943E000C943E000C943E000C943E0024
S11300600C943E000C943E0011241FBECFEFD8E048
S1130070DEBFCDBF0E9440000C9458000C940000D9
S113008084E084B980E285B92FEF3BE792E92150FF
S113009030409040E1F700C000008BB92FEF3BE700
S11300A082E9215030408040E1F700C00000EACFEF
S10700B0F894FFCFEE
S9030000FC
