S015000054696D6572305F73616D706C652E73726563FD
S11300000C9434000C943E000C943E000C943E007E
S11300100C943E000C943E000C943E000C943E0064
S11300200C943E000C943E000C943E000C943E0054
S11300300C943E000C943E000C943E000C943E0044
S11300400C943E000C943E000C943E000C943E0034
S11300500C943E000C943E000C943E000C943E0024
S11300600C943E000C943E0011241FBECFEFD8E048
S1130070DEBFCDBF0E9461000C946A000C940000A6
S113008016BC84B58E7F84BD85B58B7F85BD85B553
S11300908D7F85BD85B5816085BD40E050E0BA01A6
S11300A009C085B3816085BBA89BFBCF4F5F5F4FC1
S11300B06F4F7F4F443284EF580761057105A4F3F5
S11300C008958AB180628AB98BB180628BB90E942B
S10B00D04000FACFF894FFCFC1
S9030000FC
