S00F0000426C696E6B20312E73726563D4
S11300000C9434000C943E000C943E000C943E007E
S11300100C943E000C943E000C943E000C943E0064
S11300200C943E000C943E000C943E000C943E0054
S11300300C943E000C943E000C943E000C943E0044
S11300400C943E000C943E000C943E000C943E0034
S11300500C943E000C943E000C943E000C943E0024
S11300600C943E000C943E0011241FBECFEFD8E048
S1130070DEBFCDBF0E9440000C945C000C940000D5
S11300808AB188608AB98BB188608BB92FEF83ED10
S113009090E3215080409040E1F700C000008BB114
S11300A0877F8BB92FEF83ED90E321508040904000
S10F00B0E1F700C00000E7CFF894FFCF98
S9030000FC
